:020000040800F2
:1000000080040020AD0100083F150008C913000856
:100010003D1500086F080008F515000800000000F5
:100020000000000000000000000000004315000870
:10003000710800080000000041150008451500087F
:10004000C7010008C7010008C7010008C701000870
:10005000C7010008C7010008C7010008C701000860
:10006000C7010008C7010008C7010008C701000850
:10007000C7010008C7010008C7010008C701000840
:10008000C7010008C7010008C70100080000000000
:10009000000000000000000000000000C701000890
:1000A000C7010008C7010008C7010008C701000810
:1000B000C7010008C7010008C7010008C701000800
:1000C000C7010008C7010008C7010008C7010008F0
:1000D000C7010008C7010008C701000800000000B0
:1000E000C7010008C7010008C701000800000000A0
:1000F000000000000000000000000000C701000830
:1001000000000000C7010008C7010008C70100087F
:1001100000000000000000000000000000000000DF
:10012000C7010008C7010008C7010008C70100088F
:10013000C7010008000000000000000000000000EF
:10014000000000000000000000000000C7010008DF
:10015000C7010008C7010008C7010008C70100085F
:10016000C7010008C70100080000000000000000EF
:10017000000000000000000000000000000000007F
:1001800000000000C701000800000000000000009F
:10019000C7010008C7010008DFF80CD000F004FB1D
:1001A000004800477D24000880040020064880475E
:1001B00006480047FEE7FEE7FEE7FEE7FEE7FEE74C
:1001C000FEE7FEE7FEE7FEE7D91500089901000803
:1001D0002DE9F05F0546002092469B46884606467C
:1001E000814640241BE0284641464746224600F00F
:1001F0001CF953465A46C01A914110D3114618466D
:10020000224600F003F92D1A67EB01084F462246FB
:100210000120002100F0FAF817EB00094E41201EE2
:10022000A4F10104DFDC484631462A464346BDE8D6
:10023000F09FD2B201E000F8012B491EFBD27047BB
:100240000022F6E710B513460A4604461946FFF7A2
:10025000F0FF204610BD2DE9FE4F804681EA0300E5
:10026000C00F0C46009021F0004123F00045B8EB90
:100270000200A94105D24046214690461C460B4645
:10028000024623F00040104347D0270DC7F30A0071
:10029000C3F30A510290401A019040286BDAC3F36D
:1002A000130040F4801B0098924620B10023D2EB4B
:1002B000030A63EB0B0B01985946C0F1400250460C
:1002C00000F0A4F806460D4650465946019A00F043
:1002D000BCF810EB08006141002487EA115284EA5F
:1002E000E7731A4340D0009A62B3019A012A4FEA99
:1002F000075215DC001B61EB02014FF0004202EADD
:100300000752CDE90042001C41F5801132462B46D0
:1003100000F0F3F803B0BDE8F08F40462146F9E75E
:10032000001B61EB0201001C41F5801300185B41CA
:100330002018A2F5001747EB030140EAD570B61963
:100340006D4111E06D084FEA360645EAC0754FEA87
:100350000752001B61EB0201001C41F580114908A6
:100360004FEA30000019514132462B4603B0BDE838
:10037000F04F00F0B3B80098012240000023D0EB0A
:10038000020263EBE073009821464FEAE074B8EB99
:10039000000061EB0401E9E783F000435BE781F0D3
:1003A000004158E730B5041E71F1000404DB4FF042
:1003B0000044404264EB0101141E73F1000405DBAC
:1003C0001C464FF00043524263EB0403994208BFBE
:1003D000904230BD01F0004330B421F0004150EABA
:1003E000010206D00A0DA2F56072C1F31301002AC2
:1003F00002DC30BC00207047440F44EAC104C10055
:10040000E01830BC00EBC25000F031B8202A04DB09
:10041000203A00FA02F1002070479140C2F1200317
:1004200020FA03F3194390407047202A04DB203A56
:1004300021FA02F00021704721FA02F3D040C2F104
:1004400020029140084319467047202A06DBCB174B
:10045000203A41FA02F043EAE07306E041FA02F37F
:10046000D040C2F12002914008431946704700294C
:10047000A8BF7047401C490008BF20F0010070472A
:1004800010B4B0FA80FC00FA0CF050EA010404BF8A
:1004900010BC704749B1CCF1200421FA04F411FAE0
:1004A0000CF118BF012121430843A3EB0C01CB1D24
:1004B0004FEA00614FEA102042BF002010BC704795
:1004C00000EBC35010440029A4BF10BC7047401C6F
:1004D000490008BF20F0010010BC704710B5141E81
:1004E00073F1000408DA401C41F1000192185B41ED
:1004F0001A4301D120F0010010BD2DE9F04D9246C4
:100500009B4611B1B1FA81F202E0B0FA80F22032DA
:100510009046FFF77BFF04460F4640EA0A0041EA97
:100520000B0153465A46084313D0114653EA0100C3
:1005300019D0C8F140025046FFF777FF05460E4636
:10054000504659464246FFF761FF084305D0012057
:1005500004E020463946BDE8F08D0020054346EA18
:10056000E0762C4337430A986305E40AA0EB0800C1
:100570000022FD0A44EA47540A3002D50020014611
:10058000E9E7010510196941DDE9084500196941EC
:10059000BDE8F04DA2E72DE9FE4F81EA030404F027
:1005A000004421F0004100944FF0000B23F0004381
:1005B00050EA01045ED052EA03045BD0C3F30A544C
:1005C000C1F30A552C44A4F2F3340194A0FB025465
:1005D000C1F3130141F48011C3F3130343F48013F7
:1005E00001FB024400FB034E840A970A44EA81544B
:1005F00047EA8357A4FB076802958D0A05FB078528
:100600004FEA932C04FB0C542705029D4FEA065831
:1006100047EA1637B5EB08056EEB070C870E920E0E
:1006200047EA811742EA8312A7FB0201B6EB0B01EE
:1006300064EB00042B0D43EA0C335E1844EB1C50B2
:10064000DA465146E7FB0201C5F313044FEA0B33C8
:1006500043EA14534FEA0432019C43EA0603A4F12F
:100660000C040294009CCDE900B4FFF746FF03B0F0
:10067000BDE8F08F00200146F9E72DE9F04D81EA51
:10068000030404F0004B21F0004514464FF0000A2B
:1006900023F0004150EA050220D054EA01021DD0A7
:1006A000C5F30A570246C5F31303C1F31300C1F3A0
:1006B0000A5640F4801543F48013A7EB0608101B7C
:1006C000D64608F2FD3873EB050002D308F10108A5
:1006D00001E092185B41B8F1000F03DA00200146F7
:1006E000BDE8F08D00204FF48011064684460EE0F0
:1006F000171B73EB050705D3121B63EB05030643BA
:100700004CEA010C49084FEA300092185B4150EA6C
:100710000107EDD152EA030012D082EA040083EA15
:100720000501084305D0101BAB4106D2012200236E
:1007300006E000224FF0004302E06FF00102531088
:100740001AEB06004CEB085110EB0A0041EB0B01D1
:10075000BDE8F04DFFF7C2BE70B521F00043034382
:100760000CD0C1F30A550024D5EB040564EB040357
:10077000D617AD1AB34102DB0020014670BD201828
:1007800041EB025170BD0EB5C10F80EAE070084424
:10079000CA07002140F233438DE80E000A460B469B
:1007A000FFF7ABFE03B000BD064C074D06E0E06866
:1007B00040F0010394E8070098471034AC42F6D3A8
:1007C000FFF7EEFCE0250008002600082DE9F04DBB
:1007D00000231A461B1A8A4103DB00200146BDE8AC
:1007E000F08DC1F30A52C1F3130141F480154FF0AB
:1007F000000BD10702D100186D41521E002704469C
:1008000040F2FF11384601EB620A3E46804602463E
:1008100000204FF48011FFF708FEC2197141BB1888
:1008200046EB0100B4EB030C75EB000C04D3E41AA7
:1008300065EB000517460E46241908F101006D41CD
:1008400080463428E3DDF91946EB0600091BA84170
:1008500003D24FF0FF32134601E0002213461BEB98
:10086000070046EB0A51BDE8F04DFFF737BEFEE743
:10087000704772B6FEE700002DE9F84F00224FF0F6
:10088000010803254FF00F0E0B6808FA02F423400D
:10089000A34271D14E68012E05D0022E03D0112E35
:1008A00001D0122E15D18668570005FA07FC26EAFA
:1008B0000C06D1F80CC00CFA07FC4CEA060CC0F888
:1008C00008C04668A6430C79C4F30014944034432E
:1008D0004460C668570005FA07FC8C6826EA0C06D7
:1008E000BC403443C4604C68022C01D0122C13D19C
:1008F000D40800EB8404A346D4F8209054074FEAB0
:10090000D46A0EFA0AF629EA06090E6906FA0AF608
:1009100046EA0906CBF8206004680E7924EA0C0444
:1009200006F00306BE40264306604C68E40056D538
:100930002E4C266846F480462660246822F0030682
:1009400004F4804400942A4C3444A446D4F8084863
:100950009607370F0EFA07F6B443264EB04201D180
:10096000002615E0244EB04201D1012610E0234EAE
:10097000B04202D102260BE031E0214EB04201D15B
:10098000032605E01F4EB04201D1042600E00726F1
:10099000BE402643CCF808681B4E34684F689C4321
:1009A000FF0300D51C433460174E361D34684F6872
:1009B0009C43BF0300D51C433460134E0836346893
:1009C0004F689C43FF0200D51C4334600E4E0C362A
:1009D00034684F689C43BF0200D51C433460521CEE
:1009E000102AFFF451AFBDE8F88F000044380240F0
:1009F00000300140000002400004024000080240B4
:100A0000000C024000100240003C01400148806898
:100A1000704700000400002070B5040025D094F851
:100A20003D00002520B984F83C50204600F06EF9C6
:100A3000242084F83D002068016821F00101016054
:100A40002068016841F4004101602068016821F4D8
:100A50000041016000F0B6FA4D4A6168914201D848
:100A60004C4900E04C49884201D2012070BD4B49FD
:100A70002368B0FBF1F15E6826F03F060E435E602E
:100A80006368934206D94FF4967359434FF47A73CF
:100A9000B1FBF3F12368491C1E6A26F03F0631437F
:100AA00019626168914210D84900401EB0FBF1F212
:100AB000521CC2F30B02042A01D2042022E0B0FB34
:100AC000F1F0401CC0F30B001CE0A268F2B301EB94
:100AD000C10303EB0116431EB3FBF6F35B1C43F4A7
:100AE00080431B0549D092B301EBC10202EB011117
:100AF000401EB0FBF1F0401CC0F30B0040F48040FE
:100B000040F400402168CA694CF6FF739A431043D1
:100B1000C861D4E9071001432068026822F0C002CE
:100B200011430160D4E9030101432068826848F25F
:100B3000FF339A4311438160D4E9050108432168DA
:100B4000CA6822F0FF021043C86001E00EE016E020
:100B50002068016841F0010101602564202084F8CB
:100B60003D00256384F83E50002070BD01EB410636
:100B7000431EB3FBF6F35B1CB3E70120C2E701EBB6
:100B80004101401EB0FBF1F0401CC0F30B00B7E781
:100B9000A086010080841E0000093D0040420F0035
:100BA0002DE9FF4F81B089460446FFF72FFF054628
:100BB00094F83D004FF0010820287DD1192301222F
:100BC00050492046009500F000FC002874D194F8AC
:100BD0003C00012870D0012084F83C0020680168A6
:100BE000C90703D1016841F0010101602068016873
:100BF00021F400610160242084F83D000026266471
:100C00004148E0624FF0011B20272068016841F451
:100C1000807101600095002259462046049B00F037
:100C2000D4FB50B120680068C00502D54FF40070B5
:100C30002064032005B0BDE8F08F216809F0FE00B4
:100C40000861FFF7E3FE2168054648694969C0F37A
:100C50004000C1F380214FF0A00A0FE0FFF7D6FE5D
:100C6000411B0498814200D808B984F83DA021684E
:100C700048694969C0F34000C1F3802194F83D20E0
:100C8000A02A02D008B90029E8D084F83D70206875
:100C90004169C943890716D4016841F400710160B4
:100CA0002068416980691923012216492046009570
:100CB00000F08BFBB8B900E021E084F83D7084F8C7
:100CC0003C600020B6E7016841F4007101602168D2
:100CD0006FF480604861192301220A49204600957B
:100CE00000F073FB08B10120A4E7039808F10108A4
:100CF00080458AD384F83D7084F83C60F3E7022095
:100D000098E70000020010000000FFFF10B586B059
:100D1000044614216846FFF793FA14492068884274
:100D200021D11348016841F0020101600068694661
:100D300000F0020005904FF4C07000901220019066
:100D40000120029003200390042004900948FFF73B
:100D500093FD07481030016841F4001101600068FC
:100D600000F40010059006B010BD000000540040D3
:100D70003038024000040240024881680278114481
:100D800081607047040000200B4810B5016841F4F1
:100D900000710160016841F480610160016841F403
:100DA00080710160032000F061F8002000F006F877
:100DB00000F024F8002010BD003C024070B50D4D3D
:100DC00004464FF47A712878B1FBF0F00A490968BB
:100DD000B1FBF0F000F0E4FA48B9102C07D2002281
:100DE0002146501E00F022F800206C6070BD0120EA
:100DF00070BD000004000020100000200A4808B563
:100E0000016841F480410160006800F48040009076
:100E10000548001F016841F080510160006800F042
:100E20008050009008BD000044380240F0B40E4BE2
:100E30001B680C46C3F30223C3F10705042D00D938
:100E40000425191D072901D2002300E0DB1E01261D
:100E500006FA05F1491E214099409E40761E164033
:100E60003143F0BC00F0DFBB0CED00E0064900F0C0
:100E7000070208684FF6FF03184040EA0220034AC1
:100E800010430860704700000CED00E00000FA0518
:100E90002DE9F0470E46050065D0DFF81481D8F83B
:100EA0000000F7B200F00F00B04207D288F80070DF
:100EB000D8F8000000F00F00B04254D128683D4C33
:100EC000810712D5400703D5206840F4E050206028
:100ED0002878000703D5206840F46040206020682F
:100EE000A96820F0F000084320602878C0072DD0C2
:100EF000304968680839012812D0022813D0032825
:100F000011D00968890700292DDA216821F0030131
:100F100001432160FFF77AFD814641F2883A0EE0F5
:100F200009688903EFE709688901ECE7FFF76EFDBF
:100F3000A0EB0901514502D90320BDE8F0872068E4
:100F4000696800F00C00B0EB810FEFD1D8F8001009
:100F5000404601F00F01B14207D90770006800F068
:100F60000F00B04201D00120E7E72878400705D5FF
:100F70002068E96820F4E0500843206028780007E2
:100F800006D52068296920F4604040EAC10020604D
:100F900000F028F82168084AC1F30311515CC840E9
:100FA0000649086006480068FFF708FF0020C4E70C
:100FB000003C02400838024036250008100000209E
:100FC000080000200448054900680968044AC1F384
:100FD0008221515CC8407047100000200838024050
:100FE00046250008154810B5006810F00C0214489A
:100FF00013D04110042A0FD0082A0ED10F4C241F01
:101000002268236802F03F025B0207D52068C0F324
:101010008810A0FB010106E0084610BD2168C1F35D
:101020008811A1FB00010023FFF7D2F82168C1F36A
:101030000141491C4900B0FBF1F010BD08380240E5
:101040000024F4002DE9F84F04006ED02078DFF87A
:101050003C93C007A9F104054AD009F104000168D6
:10106000C1F38101012908D00068C0F38100022882
:101070000AD1D9F80000400206D52868800337D588
:1010800060680028E1D033E06068B0F5803F10D0A0
:10109000B0F5A02F286810D020F480302860286890
:1010A00020F4802028606068A8B1FFF7AFFC0646F6
:1010B0000DE0286840F48030F4E740F48020286098
:1010C000F7E700BFFFF7A2FC801B642873D82868ED
:1010D0008003F7D50CE0FFF799FC064605E000BF5A
:1010E000FFF794FC801B6428F0D828688003F7D4AD
:1010F0002078DFF89C8280074FF0000A3ED5A34895
:10110000001D016811F00C0F08D00068C0F38100C9
:1011100002280BD1D9F80000400207D428688007C4
:1011200016D5E068012800D112E02BE1E068B8B1E3
:101130000120C8F80000FFF769FC064605E000BF83
:10114000FFF764FC801B0228C0D828688007F7D509
:101150002868216920F0F80040EAC10028600DE00D
:10116000C8F800A0FFF752FC064604E0FFF74EFC6B
:10117000801B02281FD828688007F7D42078000732
:1011800022D5824E83486169703671B101210160B8
:10119000FFF73CFC074604E0FFF738FCC01B0228C1
:1011A00009D830688007F7D50EE0C0F800A0FFF737
:1011B0002DFC074605E082E0FFF728FCC01B022853
:1011C0007DD830688007F7D42078400768D5DFF8ED
:1011D000BCB100270BF13C0BDBF80000C0000BD4C6
:1011E000DBF8001041F08051CBF80010DBF8000074
:1011F000012700F080500090674E3068C00510D481
:10120000306840F480703060FFF700FC009005E02B
:10121000FFF7FCFB0099401A022850D83068C0053F
:10122000F6D55A4EA0686C3601280FD005283068D4
:1012300010D020F001003060306820F004003060F1
:10124000A068B8B1FFF7E2FB00900FE0306840F013
:101250000100F4E740F004003060F7E7FFF7D6FB49
:101260000099411A41F28830814266D8306880077F
:10127000F4D50EE0FFF7CAFB009007E0FFF7C6FBCE
:101280000099411A41F28830814256D8306880076F
:10129000F4D42FB1DBF8001021F08051CBF800100E
:1012A000A069C8B33949091D0968C1F38101022940
:1012B0004AD00228504607D0C8F8600000E03CE061
:1012C000FFF7A4FB04463BE04746C8F86000FFF781
:1012D0009DFB064605E000BFFFF798FB801B022838
:1012E0002BD828688001F7D4D4E907010843A16A04
:1012F0002A4A490802EB0141626A41EA8211084325
:1013000094F82C1040EA0161C9F8001001203866F9
:10131000FFF77CFB044606E036E000BFFFF776FBF4
:10132000001B022809D828688001F7D52CE000BFEF
:10133000FFF76CFB001B022802D90320BDE8F88FE1
:1013400028688001F4D41FE00128F7D0D9F8000004
:10135000E26900F48001914214D1226A00F03F0159
:1013600091420FD147F6C071626A0140914209D1A2
:10137000A26A00F44031914204D1E16A00F0706049
:10138000884201D00120D9E70020D7E70438024085
:1013900000004742800E4742007000400000FFFFFF
:1013A00010B5401EB0F1807F01D3012010BD4FF079
:1013B000E02460610F21601700F035F90020A06182
:1013C00007202061002010BDFEE72DE9F0471E46F2
:1013D00090460D460446C1F30747DDF8209008E02B
:1013E000701C06D0FFF712FBA0EB0900B0420FD82B
:1013F00076B12068012F18D0806925EA000000042A
:10140000000C14D000214145EAD00020BDE8F0874F
:10141000002044F8300F20216173A073216941F04E
:101420002001216120730120F0E74069E5E70121F7
:10143000E9E71FB504468DF804206846009100F0E6
:1014400013F89DE80F0084E80F001FBD10B5017967
:1014500000684FF47A730A22FFF7A2FB08B100205C
:1014600010BD012010BD0000B5EEC00A10B5F1EEB0
:1014700010FA044601D19FED0D0A9FED0D1B84ED7E
:10148000020A9FED0D0B00F0DFF851EC100BFEF798
:10149000A1FF00EE100AD4ED020A80EE201ABCEE85
:1014A000C10A10EE100AA08110BD00003333534072
:1014B0000000000000002840000000000000004084
:1014C0000D4808B5016841F080010160016801F034
:1014D00080010091016841F001010160016801F0A3
:1014E00001010091016841F002010160006800F013
:1014F0000200009008BD0000303802400D4810B5D1
:101500000B4901600C49416000214FF48042816029
:10151000C0E9031241618161C1610162FFF77CFA98
:10152000002803D0BDE81040FFF7A3B910BD0000AC
:101530000054004028000020801A0600FEE7FEE765
:1015400070477047FFF718BC30B593B0302168463C
:10155000FEF776FE14210CA8FEF772FE1C4800254B
:10156000016841F080510160006800F080501190E6
:101570001848016841F4404101600068022400F409
:101580004040119001200090000401908001CDE9BD
:10159000064008AA0420642182E813000B906846E4
:1015A000FFF750FD08B172B6FEE70CA90F2081E8E5
:1015B00031004FF48050CDE90F0503210CA8FFF74F
:1015C00067FC002801D072B6FEE713B030BD000002
:1015D00040380240007000400548016841F4700145
:1015E000016003494FF000608039086070470000D7
:1015F00088ED00E0FEE703B401984100009850EA4E
:10160000C12018BF04204A0D18BF40F0010040F26D
:10161000FF72B2EB515F08BF40F00200012808BF23
:10162000052002B070470907090E002804DB00F10D
:10163000E02080F80014704700F00F0000F1E02077
:1016400080F8141D704700002DE9F04D2DED040BBE
:101650002DED0E8B96B0DDE92550279CDDF890A08E
:1016600025F0004624F00048BAF1000F14BF012114
:10167000002101EB4502FC4953184A1093422AD33A
:10168000002814BF0123002303EB44030B44F74954
:101690008B4220D358EA00019FEDF59B76D0DFF80E
:1016A000D8B35D4503D1BAF1000F05D188E0BAF196
:1016B000000F08BF002100D0012101EB450111F509
:1016C000001F08D8002814BF0121002101EB4401AC
:1016D00011F5001F0BD99DED261B9DED240B16B0B7
:1016E000BDEC0E8B04B0BDE8F04D00F069BE0027E4
:1016F000002DBCBFE149884521DAE1498845A8BFF2
:1017000002271CDAC3451ADCDE4901EB28511429F3
:1017100008DDC1F1340220FA02F101FA02F282423C
:101720000DD108E058B9C1F1140228FA02F101FA0A
:1017300002F2424503D101F00101C1F1020756EA6C
:101740000A0124D1002C22DA002D18BF022F01D06B
:10175000012F0AD0022000F07FFE16B0BDEC0E8BE8
:1017600004B0BDE8F04D00F013BE022000F074FE9E
:1017700000F00EFE51EC100B81F0004141EC100B1B
:1017800016B0BDEC0E8B04B0BDE8F08D18E09FEDF7
:10179000BEAB9FEDBF8B002871D1B848804522D1E8
:1017A00005F1804010F5801008BFBAF1000F07D096
:1017B000B3450ADC002CA8BF9DED260BE0DA0DE056
:1017C000B0EE490AF0EE690ADAE7002C06DA9DED80
:1017D000260B51EC100B81F000416FE0AE487844CD
:1017E00090ED000BCCE7D8454DD1002C48DA2EB156
:1017F00086423AD1BAF1000F42D126E0BAF1000F89
:1018000013D0022000F028FE00F0F6FD8DED020B53
:101810009DED240B8DED000B10EE900A039961F302
:101820001E0003909DED020BAAE78DED02AB9DED2E
:10183000240B1AEE901A10EE900A8DED000B61F356
:101840001E0003909DED020B9AE78DED028B9DED3E
:10185000240B18EE901A10EE900A8DED000B61F338
:101860001E0003909DED020B8AE709DA9DED240B23
:1018700051EC190B53EC102BFEF7FFFE1EE020E09D
:101880009DED240B7CE786421BDAB4F1804F0DD02E
:10189000A4F10050B0F1FF5013D1002D11DB9DEDEC
:1018A000240B51EC100B00F00FFE07E09DED240B14
:1018B00053EC102B51EC100B00F0C2BC41EC100BA0
:1018C0005EE79DED240B51EC100B00F0CBFDBAF15F
:1018D000000FCDE90E0142D19FED710B46B3A6F189
:1018E000E040B0F17F600CD05E4538D1002D00DAC9
:1018F000A7B3022F0CBF01204FF0FF30FEF743FFCC
:10190000DCE7002D01DD002C0DDA002D01DD002CBF
:101910001FDB002D16DA002C14DB012F08BF9FED12
:10192000620B3FF42DAFB0EE4A0AF0EE6A0A27E7E9
:10193000022F18BF002D0CD0012F0AD1002DFFF669
:101940001FAF06E0002DB8BF002C08DA012F3FF4CE
:1019500017AFB0EE480AF0EE680A11E71BE001206D
:1019600000EBE57050EA070115D0791EB0EE498A08
:10197000F0EE698A084308BF9FED4D8B4E48002565
:10198000804570DD4D494E48884514DDB0420DDB81
:10199000002C19DB2FE0012000F05EFD16B0BDEC3D
:1019A0000E8B04B0BDE8F04D00F016BDB34502DC6F
:1019B000002C09DC1FE0864202DA002C1BDA03E06F
:1019C0005E452BDD002C16DD022000F045FD00F009
:1019D00013FD8DED020B53EC1A2B51EC180BFEF797
:1019E000DAFDCDE900010399019861F31E0003902F
:1019F0009DED020BC4E6022000F02EFD00F00CFD70
:101A000010EE901A18EE900A8DED020B8DED008B02
:101A100061F31E0003909DED020BB1E69DED0E0BF0
:101A200053EC192B51EC100BFEF7B6FC9FED260B77
:101A3000CDE9080153EC102B9DED080B51EC100B78
:101A4000FEF7A9FD9FED221B53EC112BFEF7A7FC1F
:101A50009DED081B53EC112BFEF79DFD9FED1E1B0A
:101A600053EC112B3CE08CE0FFFF1F00FFFF0F0049
:101A7000000000000000F03F0000F03F0000F07F99
:101A80000000404301FCFFFF000000000000F07F69
:101A90000000000000000000F60D00000000000043
:101AA0000000000000000080000000000000F0FFC7
:101AB000000000000000F0BF0000E0410000F04323
:101AC000FFFFEF3F00000000000000000000D03FDB
:101AD000555555555555D53F000000000000E03FD5
:101AE000FEF75DFC9DED080B41EC1A0B53EC102B3F
:101AF00051EC100BFEF74FFD53EC1A2BFEF74BFD8C
:101B000041EC1A0B9FEDFE0B53EC102B9DED080BD7
:101B100051EC100BFEF73FFD41EC1B0B9FEDFA0B58
:101B200051EC1A0B53EC102BFEF735FD41EC1A0B60
:101B30009FEDF70B53EC102B9DED080B51EC100BA8
:101B4000FEF729FD53EC1A2BFEF726FC41EC1A0B8D
:101B500051EC1B0B53EC1A2BFEF77DFB0690CDE9E5
:101B600006519DED060B53EC1B2B51EC100BFEF7B1
:101B700013FC53EC1A2BFEF712FC41EC100B00F097
:101B8000A1B90020B6F5801F0EDA9FEDE30B53ECF0
:101B9000102B9DED0E0B51EC100BFEF7FCFCCDE96C
:101BA0000E016FF034000E4600EB2650A0F2FF3716
:101BB000C6F31300DA4940F07F6646F0405688428B
:101BC000D8BF002408DDD7498142C8BF012403DC07
:101BD0000024A6F580167F1CD348784400EBC4008F
:101BE0000F9690ED00CB9DED0E0B53EC1C2B51ECA2
:101BF000100BFEF7D1FB9DED0E0B41EC1B0B53ECD4
:101C00001C2B51EC100BFEF726FB41EC100B51EC9A
:101C1000190B53EC102BFEF730FD41EC1D0B51EC72
:101C20001B0B53EC1D2BFEF7B6FC41EC1A0BBF4807
:101C30008DED10AB7844109590ED000B4FF00050F7
:101C400040EA660000EB84408DED080B00F50020B3
:101C500009909DED080B53EC1C2B51EC100BFEF77B
:101C60009BFB9DED0E1B53EC112BFEF798FB41ECFB
:101C7000100B53EC102B9DED100B51EC100BFEF7DD
:101C80008AFC9DED080B41EC1C0B53EC102B9DEDD9
:101C9000100B51EC100BFEF77EFC53EC1B2BFEF7E8
:101CA0007EFB53EC1C2BFEF777FB53EC1D2BFEF752
:101CB00072FC41EC1C0B53EC1A2B51EC1A0BFEF787
:101CC0006AFC41EC1B0B9A480621B0EE4B0AF0EE81
:101CD0006B0A784400F0E0FAB0EE401AF0EE601AB9
:101CE000B0EE41DAF0EE61DA53EC1B2B51EC1B0B3A
:101CF000FEF751FC53EC1D2BFEF74DFC9DED100B38
:101D000041EC1B0B53EC1A2B51EC100BFEF7A3FA12
:101D100053EC1C2BFEF73FFC53EC1B2BFEF79BFAFE
:101D20009DED100B41EC1B0B53EC102B51EC100BE9
:101D3000FEF731FC41EC1D0B9FED7FEB53EC1E2BAE
:101D4000FEF789FA53EC1B2BFEF785FA0890CDE9D4
:101D500008519DED080B53EC1E2B51EC100BFEF7B8
:101D60001BFB53EC1D2BFEF717FB53EC1B2BFEF755
:101D700016FB9DED080B41EC1D0B53EC102B9DED5C
:101D8000100B51EC100BFEF706FC41EC1B0B53EC57
:101D90001A2B51EC1D0BFEF7FEFB9DED080B41ECE1
:101DA0001A0B53EC102B51EC1C0BFEF7F4FB53EC0D
:101DB0001A2BFEF750FA41EC1A0B51EC1B0B53ECAB
:101DC0001A2BFEF748FA0C90CDE90C519DED0C0B47
:101DD00053EC1B2B51EC100BFEF7DEFA53EC1A2BD5
:101DE000FEF7DDFA41EC1B0B9FED550B53EC102B6E
:101DF0009DED0C0B51EC100BFEF7CDFB41EC1A0BDB
:101E00009FED510B51EC1B0B53EC102BFEF7C3FB5A
:101E100041EC1B0B9FED4E0B53EC102B9DED0C0B6F
:101E200051EC100BFEF7B7FB53EC1B2BFEF713FA2C
:101E300041EC100B4848784400EBC40090ED001BC7
:101E400051EC100B53EC112BFEF705FA41EC1B0B78
:101E50003846FEF798FCCDE9080153EC1B2B51ECFA
:101E60001A0BFEF7F8F941EC100B3C48784400EBF4
:101E7000C40090ED00CB51EC100B53EC1C2BFEF783
:101E8000EAF99DED081B53EC112BFEF7E4F90690DF
:101E9000CDE906519DED080B53EC102B9DED060B83
:101EA00051EC100BFEF778FA53EC1C2BFEF774FA8A
:101EB00053EC1A2BFEF770FA53EC1B2BFEF76FFA5C
:101EC00041EC100B9DED261B53EC102B8DED001BF0
:101ED00000959DED260B51EC100BFEF75CFB9DED84
:101EE000000B41EC1A0B53EC102B9DED260B51EC23
:101EF000100BFEF751FA9DED061B53EC112B2FE052
:101F0000000000604715F73FFE822B654715F73F3D
:101F100044DF5DF80BAE543E00000000000040437B
:101F20008E9803007AB60B0072090000A009000029
:101F3000AA080000000000000000000000000840A7
:101F4000000000E009C7EE3FFD033ADC09C7EE3FA1
:101F5000F5015B14E02F3EBE36070000F0060000DE
:101F6000FEF719FB53EC1A2BFEF775F99DED060BE6
:101F700041EC1A0B53EC102B9DED000B51EC100BA8
:101F8000FEF709FBCDE90C019DED0C0B51EC1A0B92
:101F900053EC102BFEF75FF9CDE902010C46AA497C
:101FA0008C422FDB611A084318D19DED0C0B53ECCA
:101FB000102B9DED020B51EC100BFEF7EDF941ECEF
:101FC0001B0B9FEDA30B51EC1A0B53EC102BFEF7E0
:101FD00042F953EC1B2BFEF7E5F92DD2022000F05D
:101FE0003BFA00F009FA10EE901A18EE900A8DED07
:101FF000020B8DED008B61F31E0003909DED020B33
:10200000FFF7BEBB944A24F00041914214D3934998
:10201000214408437FF4EFAC9DED0C0B53EC102BE7
:102020009DED020B51EC100BFEF7B6F953EC1A2B99
:10203000FEF7B8F97FF6DFAC24F000408849894A02
:10204000002601EB205182422BDA481C4FF480110C
:1020500021FA00F02044844AC0F30A517A44A1F2E4
:10206000FF3192ED000B814A8DED080BCA4020EA4A
:102070000202C0F3130040F48010C1F1140120FAF1
:1020800001F60992002CB8BF76429DED080B53EC87
:10209000102B9DED0C0B51EC100BFEF77DF9CDE9EB
:1020A0000C019DED0C0B51EC1A0B53EC102BFEF7B1
:1020B000D2F89FED6F0B0890CDE9085153EC102B2F
:1020C0009DED080B51EC100BFEF765FA41EC1B0B74
:1020D0009FED690B53EC102B9DED080B51EC100B91
:1020E000FEF759FA9DED0C0B41EC1C0B53EC102B39
:1020F0009DED080B51EC100BFEF74EF953EC1A2B2B
:10210000FEF74DF99FED5E1B53EC112BFEF743FAE2
:1021100053EC1C2BFEF79FF841EC1A0B51EC1B0BF8
:1021200053EC1A2BFEF797F8CDE902019DED020B57
:1021300053EC1B2B51EC100BFEF72EF953EC1A2B22
:10214000FEF72DF99DED020B41EC1A0B53EC102B11
:1021500051EC100BFEF71FFACDE908014A489DED3E
:10216000080B0521784400F097F89DED081B51EC11
:10217000100B53EC112BFEF70EFA9DED021B53ECE6
:10218000112BFEF70CF9CDE906019DED020B53EC86
:102190001A2B51EC100BFEF7FEF953EC1A2BFEF73D
:1021A0005AF89FED3B0B41EC1A0B53EC102B9DEDB5
:1021B000060B51EC100BFEF7EFF89DED060B41EC12
:1021C0001B0B53EC102B9DED020B51EC100BFEF78B
:1021D000E2F953EC1B2BFEF750FA53EC1A2BFEF7E7
:1021E000DBF89DED021B53EC112BFEF7D5F853ECF9
:1021F000192BFEF7D4F8CDE9020101EB06500115C9
:102200000029C8BF039015DC9DED020B324651EC4E
:10221000100BFEF7A1FAFFF7EEF9042808BF00F053
:10222000FBF832469DED020B51EC100BFEF794FAD1
:10223000CDE902019DED020B51EC180B53EC102B74
:10224000FEF7A9F9FFF73ABB00009040000000003C
:10225000FE822B654715973C00CC904000346F3FC1
:1022600001FCFFFF0000E03F78050000FFFF0F00CA
:1022700000000000432EE63F396CA80C615C20BED4
:10228000EF39FAFE422EE63F48040000000000004D
:10229000000000000000004070B504462DED028BE8
:1022A0004D1E00EBC500B0EE408AF0EE608A90ED66
:1022B000000B35F0060017D053EC182B51EC100B27
:1022C000FEF769F941EC100B6D1E04EBC50090EDB3
:1022D000001B51EC100B53EC112BFDF7BCFF41EC34
:1022E000100B35F00600E7D1022D36D0042D1CD09E
:1022F000062D1CBFBDEC028B70BD53EC182B51ECAE
:10230000100BFEF748F994ED0A1B53EC112BFDF767
:10231000A2FF53EC182BFEF73EF994ED081B53EC8B
:10232000112BFDF798FF41EC100B53EC182B51ECDF
:10233000100BFEF730F994ED061B53EC112BFDF753
:102340008AFF53EC182BFEF726F994ED040B53EC9F
:10235000102BFDF780FF41EC100B53EC182B51ECC8
:10236000100BFEF718F994ED021B53EC112BFDF73F
:1023700072FF53EC182BFEF70EF994ED001B53EC93
:10238000112BFDF768FFBDEC028B41EC100B70BD0B
:102390009FED070B10B553EC102B9FED070B51EC85
:1023A000100BFEF76AF941EC100B10BD00000000A5
:1023B0000000000000000000000000000000F03FEE
:1023C00010B553EC112B51EC100BFDF744FF41EC11
:1023D000100B10BD000000009FED050B10B553EC75
:1023E000102B51EC100BFEF748F941EC100B10BD0F
:1023F00000000000000000009FED050B10B553EC3D
:10240000102B51EC100BFEF7C6F841EC100B10BD71
:1024100000000000000000709FED050B10B553ECAC
:10242000102B51EC100BFEF7B6F841EC100B10BD61
:10243000000000000000001002E008C8121F08C1E0
:10244000002AFAD170477047002001E001C1121F35
:10245000002AFBD170470000014908607047000066
:102460001400002082B0CDE9000121F0004001906D
:102470009DED000B02B051EC100B70471FB5FEF73D
:1024800083FCFFF761F8FFF71BF8FFF737F89FEDC4
:102490000A0A602209496846FEF7CBFF9DE81E0044
:1024A000074880E81E00FEF7D1FF0649012800D04A
:1024B00000200870FEE7000033335340280000205E
:1024C000180000200000002000B52DED048B83B023
:1024D00041EC190BFEF77AF941EC180B18EE100AD3
:1024E00018EE901A8DED008B002818BF01200843CC
:1024F00020F00040C0F17F6000F1E040C00F14D038
:1025000019EE101A19EE900A8DED009B002918BFE4
:102510000121084320F00040C0F17F6000F1E0405D
:10252000C00F04BF0120FFF797FF51EC180B03B059
:10253000BDEC048B00BD00000000000000000102A3
:10254000030406070809000000000102030400005C
:10255000000000000000F03F000000000000F83F15
:1025600000000000000000000000004003B8E23F4F
:10257000000000000000000006D0CF43EBFD4C3E01
:10258000033333333333E33FFFAB6FDBB66DDB3FF6
:102590004D268F515555D53F01411DA96074D13F3E
:1025A00065DBC9934A86CD3FEF4E454A287ECA3F38
:1025B0003E5555555555C53F93BDBE166CC166BFBA
:1025C0002CDE25AF6A56113FF16BD2C541BDBBBEB3
:1025D000D0A4BE726937663E000000000000000013
:1025E0000026000800000020180000003824000821
:1025F000182600081800002068040000482400087D
:1026000002000000010000001000000000000000B7
:082610000024F40000000000AA
:040000050800019955
:00000001FF
