:020000040800F2
:10000000C8060020AD010008731E00086F18000824
:10001000711E0008F50500083720000800000000E8
:10002000000000000000000000000000771E000833
:10003000F705000800000000751E0008791E000882
:10004000C7010008C7010008C7010008C701000870
:10005000C7010008C7010008C7010008C701000860
:10006000C7010008C7010008C7010008C701000850
:10007000C7010008C7010008C7010008C701000840
:10008000C7010008C7010008C70100080000000000
:10009000000000000000000000000000C701000890
:1000A000C7010008291F0008C7010008C701000890
:1000B000C7010008C7010008C7010008C701000800
:1000C000C7010008C7010008C7010008C7010008F0
:1000D000C7010008C7010008C701000800000000B0
:1000E000C7010008C7010008C701000800000000A0
:1000F000000000000000000000000000C701000830
:1001000000000000C7010008C7010008C70100087F
:1001100000000000000000000000000000000000DF
:10012000C7010008C7010008C7010008C70100088F
:10013000C7010008000000000000000000000000EF
:10014000000000000000000000000000C7010008DF
:10015000C7010008C7010008C7010008C70100085F
:10016000C7010008C70100080000000000000000EF
:10017000000000000000000000000000000000007F
:1001800000000000C701000800000000000000009F
:10019000C7010008C7010008DFF80CD000F018FA0A
:1001A0000048004709240008C80600200648804788
:1001B00006480047FEE7FEE7FEE7FEE7FEE7FEE74C
:1001C000FEE7FEE7FEE7FEE70D1F000899010008C5
:1001D0002DE9F05F0546002092469B46884606467C
:1001E000814640241BE0284641464746224600F00F
:1001F0004BF953465A46C01A914110D3114618463E
:10020000224600F032F92D1A67EB01084F462246CC
:100210000120002100F029F917EB00094E41201EB2
:10022000A4F10104DFDC484631462A464346BDE8D6
:10023000F09FD2B201E000F8012B491EFBD27047BB
:100240000022F6E710B513460A4604461946FFF7A2
:10025000F0FF204610BD2DE9FE4F81EA030404F0B3
:10026000004421F0004100944FF0000B23F00043C4
:1002700050EA01045ED052EA03045BD0C3F30A548F
:10028000C1F30A552C44A4F2F3340194A0FB0254A8
:10029000C1F3130141F48011C3F3130343F480133A
:1002A00001FB024400FB034E840A970A44EA81548E
:1002B00047EA8357A4FB076802958D0A05FB07856B
:1002C0004FEA932C04FB0C542705029D4FEA065875
:1002D00047EA1637B5EB08056EEB070C870E920E52
:1002E00047EA811742EA8312A7FB0201B6EB0B0132
:1002F00064EB00042B0D43EA0C335E1844EB1C50F6
:10030000DA465146E7FB0201C5F313044FEA0B330B
:1003100043EA14534FEA0432019C43EA0603A4F172
:100320000C040294009CCDE900B400F003F903B082
:10033000BDE8F08F00200146F9E72DE9F04D81EA94
:10034000030404F0004B21F0004514464FF0000A6E
:1003500023F0004150EA050220D054EA01021DD0EA
:10036000C5F30A570246C5F31303C1F31300C1F3E3
:100370000A5640F4801543F48013A7EB0608101BBF
:10038000D64608F2FD3873EB050002D308F10108E8
:1003900001E092185B41B8F1000F03DA002001463A
:1003A000BDE8F08D00204FF48011064684460EE033
:1003B000171B73EB050705D3121B63EB05030643FD
:1003C0004CEA010C49084FEA300092185B4150EAB0
:1003D0000107EDD152EA030012D082EA040083EA59
:1003E0000501084305D0101BAB4106D201220023B2
:1003F00006E000224FF0004302E06FF001025310CC
:100400001AEB06004CEB085110EB0A0041EB0B0114
:10041000BDE8F04D00F07FB80EB540F233410291D7
:100420000021CDE900110A460B4600F083F803B025
:1004300000BD01F0004330B421F0004150EA010258
:1004400006D00A0DA2F56072C1F31301002A02DC86
:1004500030BC00207047440F44EAC104C100E018DA
:1004600030BC00EBC25000F01FB8202A04DB203A59
:1004700000FA02F1002070479140C2F1200320FAF7
:1004800003F3194390407047202A04DB203A21FAF5
:1004900002F00021704721FA02F3D040C2F120029D
:1004A00091400843194670470029A8BF7047401C77
:1004B000490008BF20F00100704710B4B0FA80FC7A
:1004C00000FA0CF050EA010404BF10BC704749B1B7
:1004D000CCF1200421FA04F411FA0CF118BF012127
:1004E00021430843A3EB0C01CB1D4FEA00614FEA07
:1004F000102042BF002010BC704700EBC3501044D6
:100500000029A4BF10BC7047401C490008BF20F060
:10051000010010BC704710B5141E73F1000408DA16
:10052000401C41F1000192185B411A4301D120F0B7
:10053000010010BD2DE9F04D92469B4611B1B1FA74
:1005400081F202E0B0FA80F220329046FFF78DFF90
:1005500004460F4640EA0A0041EA0B0153465A4658
:10056000084313D0114653EA010019D0C8F14002E4
:100570005046FFF789FF05460E465046594642460B
:10058000FFF773FF084305D0012004E020463946F9
:10059000BDE8F08D0020054346EAE0762C43374362
:1005A0000A986305E40AA0EB08000022FD0A44EA69
:1005B00047540A3002D500200146E9E70105101929
:1005C0006941DDE9084500196941BDE8F04DA2E740
:1005D000064C074D06E0E06840F0010394E8070090
:1005E00098471034AC42F6D3FFF7DAFD082500082F
:1005F00028250008FEE7704772B6FEE770B504468E
:1006000000F0D8F80546601C02D004480078044485
:1006100000F0D0F8401BA042FAD370BD04000020C7
:100620002DE9F84F00224FF0010803254FF00F0E7F
:100630000B6808FA02F42340A34271D14E68012EE0
:1006400005D0022E03D0112E01D0122E15D18668AE
:10065000570005FA07FC26EA0C06D1F80CC00CFA84
:1006600007FC4CEA060CC0F808C04668A6430C79A3
:10067000C4F30014944034434460C668570005FA3C
:1006800007FC8C6826EA0C06BC403443C4604C6806
:10069000022C01D0122C13D1D40800EB8404A34601
:1006A000D4F8209054074FEAD46A0EFA0AF629EAE1
:1006B00006090E6906FA0AF646EA0906CBF8206032
:1006C00004680E7924EA0C0406F00306BE402643B3
:1006D00006604C68E40056D52E4C266846F48046E9
:1006E0002660246822F0030604F4804400942A4C17
:1006F0003444A446D4F808489607370F0EFA07F694
:10070000B443264EB04201D1002615E0244EB0423B
:1007100001D1012610E0234EB04202D102260BE0A7
:1007200031E0214EB04201D1032605E01F4EB04218
:1007300001D1042600E00726BE402643CCF8086815
:100740001B4E34684F689C43FF0300D51C43346044
:10075000174E361D34684F689C43BF0300D51C43B9
:100760003460134E083634684F689C43FF0200D54E
:100770001C4334600E4E0C3634684F689C43BF02F5
:1007800000D51C433460521C102AFFF451AFBDE861
:10079000F88F000044380240003001400000024061
:1007A0000004024000080240000C02400010024019
:1007B000003C0140014880687047000004000020B0
:1007C00070B5040025D094F83D00002520B984F8C8
:1007D0003C50204600F0F4FA242084F83D002068C4
:1007E000016821F0010101602068016841F40041C5
:1007F00001602068016821F40041016000F052FCB2
:100800004D4A6168914201D84C4900E04C49884208
:1008100001D2012070BD4B492368B0FBF1F15E6845
:1008200026F03F060E435E606368934206D94FF49C
:10083000967359434FF47A73B1FBF3F12368491C63
:100840001E6A26F03F06314319626168914210D852
:100850004900401EB0FBF1F2521CC2F30B02042A05
:1008600001D2042022E0B0FBF1F0401CC0F30B00E9
:100870001CE0A268F2B301EBC10303EB0116431EB7
:10088000B3FBF6F35B1C43F480431B0549D092B3E2
:1008900001EBC10202EB0111401EB0FBF1F0401C64
:1008A000C0F30B0040F4804040F400402168CA6966
:1008B0004CF6FF739A431043C861D4E90710014313
:1008C0002068026822F0C00211430160D4E90301EC
:1008D00001432068826848F2FF339A4311438160E4
:1008E000D4E9050108432168CA6822F0FF021043D9
:1008F000C86001E00EE016E02068016841F00101E7
:1009000001602564202084F83D00256384F83E5072
:10091000002070BD01EB4106431EB3FBF6F35B1CE8
:10092000B3E70120C2E701EB4101401EB0FBF1F04B
:10093000401CC0F30B00B7E7A086010080841E00B6
:1009400000093D0040420F002DE9FF4F81B089466C
:100950000446FFF72FFF054694F83D004FF00108CD
:1009600020287DD11923012250492046009501F00D
:1009700081F8002874D194F83C00012870D001203F
:1009800084F83C0020680168C90703D1016841F080
:10099000010101602068016821F4006101602420E8
:1009A00084F83D00002626644148E0624FF0011BB8
:1009B00020272068016841F48071016000950022C1
:1009C00059462046049B01F055F850B12068006854
:1009D000C00502D54FF400702064032005B0BDE8C7
:1009E000F08F216809F0FE000861FFF7E3FE21683F
:1009F000054648694969C0F34000C1F380214FF0C2
:100A0000A00A0FE0FFF7D6FE411B0498814200D8F0
:100A100008B984F83DA0216848694969C0F34000DD
:100A2000C1F3802194F83D20A02A02D008B9002902
:100A3000E8D084F83D7020684169C943890716D41D
:100A4000016841F4007101602068416980691923DF
:100A5000012216492046009501F00CF8B8B900E0D3
:100A600021E084F83D7084F83C600020B6E701681E
:100A700041F40071016021686FF4806048611923BE
:100A800001220A492046009500F0F4FF08B1012038
:100A9000A4E7039808F1010880458AD384F83D70E3
:100AA00084F83C60F3E7022098E7000002001000A1
:100AB0000000FFFF2DE9F84F1F4690468A46044686
:100AC000DDF82890FFF776FE054694F83D002028D3
:100AD00075D1192301226C492046009500F0CAFF08
:100AE0000028F5D194F83C00012868D0012084F852
:100AF0003C0020680168C90703D1016841F0010189
:100B000001602068016821F400610160222084F8FE
:100B10003D00102084F83E0000262664C4F824809E
:100B20006785608D20855948E0622B464A465146CC
:100B3000204600F0B5FE002878D1208D544F68B1D2
:100B4000012814D002282068016816D041F4806181
:100B50000160206841698069009087E020684169F0
:100B600081690091016841F4007101607EE02068B4
:100B7000016821F480610160F0E721F48061016087
:100B80002068016841F40061E2E7032848D80128A1
:100B90000AD0022814D04B46002239462046009540
:100BA00000F068FFD8BB27E02A464946204600F0FF
:100BB000E0FFA0BB20680069616A08704DE061E059
:100BC0004B46002239462046009500F053FF30BBCB
:100BD0002068016841F40071016020680069616A61
:100BE0000870606A401C6062218D491E2185618DFC
:100BF000491E618521682EE02068016821F480612A
:100C0000016020680069616A0870606A401C606267
:100C1000208D401E2085608D401E6085D0E705E058
:100C20002A464946204600F0A4FF10B10120BDE845
:100C3000F88F20680069616A0870606A401C606211
:100C4000218D491E2185618D491E618521684A6972
:100C5000D24352070AD409690170606A401C60627D
:100C6000208D401E2085608D401E6085208D0028CF
:100C70008BD1202084F83D0084F83E6084F83C60ED
:100C80000020D4E70220D2E7020010000000FFFF9E
:100C9000040001002DE9F84F1F4690468A4604469D
:100CA000DDF82890FFF786FD054694F83D002028E2
:100CB0007FD11923012240492046009500F0DAFE39
:100CC000002876D194F83C00012872D0012084F8E5
:100CD0003C0020680168C90703D1016841F00101A7
:100CE00001602068016821F400610160212084F81E
:100CF0003D00102084F83E0000262664C4F82480BD
:100D00006785608D20852D48E0622B464A46514616
:100D1000204600F03BFE90B9206841698069009050
:100D200036E02A464946204600F056FF50B1206C76
:100D3000042804D12068016841F400710160012099
:100D4000BDE8F88F606A216800780861606A401C1D
:100D50006062618D491E6185218D491E89B22185A0
:100D600022685369DB435B070BD451B100781061F3
:100D7000606A401C6062608D401E6085208D401E50
:100D800020852A464946204600F04EFE0028CED156
:100D9000208D0028C5D154F83D0B016841F4007145
:100DA0000160202004F81E09E67766770020C7E777
:100DB000FFE70220C4E70000020010000000FFFF70
:100DC000F0B587B0044614216846FFF739FA184990
:100DD0002068884229D11748016841F0020101606A
:100DE0000068122400F0020005904FF48060012595
:100DF00003268DE8710004200F4F049069463846A1
:100E0000FFF70EFC08208DE8710009200490694668
:100E10003846FFF705FC07481030016841F48001AF
:100E20000160006800F48000059007B0F0BD00008C
:100E300000580040303802400004024002488168F7
:100E40000278114481607047040000200B4810B5FF
:100E5000016841F400710160016841F48061016042
:100E6000016841F480710160032000F06FF80020F8
:100E700000F006F800F024F8002010BD003C02400D
:100E800070B50D4D04464FF47A712878B1FBF0F03F
:100E90000A490968B1FBF0F000F0F2FA48B9102CE9
:100EA00007D200222146501E00F030F800206C606E
:100EB00070BD012070BD0000040000201000002063
:100EC0000A4808B5016841F480410160006800F4F7
:100ED000804000900548001F016841F0805101608A
:100EE000006800F08050009008BD000044380240C7
:100EF000002809DB00F01F02012191404009800019
:100F000000F1E020C0F8001170470000F0B40E4B73
:100F10001B680C46C3F30223C3F10705042D00D957
:100F20000425191D072901D2002300E0DB1E01263C
:100F300006FA05F1491E214099409E40761E164052
:100F40003143F0BC01F08BB80CED00E0064900F035
:100F5000070208684FF6FF03184040EA0220034AE0
:100F600010430860704700000CED00E00000FA0537
:100F70002DE9F0470E46050065D0DFF81481D8F85A
:100F80000000F7B200F00F00B04207D288F80070FE
:100F9000D8F8000000F00F00B04254D128683D4C52
:100FA000810712D5400703D5206840F4E050206047
:100FB0002878000703D5206840F46040206020684E
:100FC000A96820F0F000084320602878C0072DD0E1
:100FD000304968680839012812D0022813D0032844
:100FE00011D00968890700292DDA216821F0030151
:100FF00001432160FFF7DEFB814641F2883A0EE0B3
:1010000009688903EFE709688901ECE7FFF7D2FB7C
:10101000A0EB0901514502D90320BDE8F087206803
:10102000696800F00C00B0EB810FEFD1D8F8001028
:10103000404601F00F01B14207D90770006800F087
:101040000F00B04201D00120E7E72878400705D51E
:101050002068E96820F4E050084320602878000701
:1010600006D52068296920F4604040EAC10020606C
:1010700000F028F82168084AC1F30311515CC84008
:101080000649086006480068FFF7FAFE0020C4E73A
:10109000003C024008380240D02400081000002024
:1010A000080000200448054900680968044AC1F3A3
:1010B0008221515CC840704710000020083802406F
:1010C000E0240008154810B5006810F00C02144820
:1010D00013D04110042A0FD0082A0ED10F4C241F20
:1010E0002268236802F03F025B0207D52068C0F344
:1010F0008810A0FB010106E0084610BD2168C1F37D
:101100008811A1FB00010023FFF762F82168C1F3F9
:101110000141491C4900B0FBF1F010BD0838024004
:101120000024F4002DE9F84F04006ED02078DFF899
:101130003C93C007A9F104054AD009F104000168F5
:10114000C1F38101012908D00068C0F381000228A1
:101150000AD1D9F80000400206D52868800337D5A7
:1011600060680028E1D033E06068B0F5803F10D0BF
:10117000B0F5A02F286810D020F4803028602868AF
:1011800020F4802028606068A8B1FFF713FB0646B2
:101190000DE0286840F48030F4E740F480202860B7
:1011A000F7E700BFFFF706FB801B642873D82868A9
:1011B0008003F7D50CE0FFF7FDFA064605E000BF17
:1011C000FFF7F8FA801B6428F0D828688003F7D46A
:1011D0002078DFF89C8280074FF0000A3ED5A348B4
:1011E000001D016811F00C0F08D00068C0F38100E9
:1011F00002280BD1D9F80000400207D428688007E4
:1012000016D5E068012800D112E02BE1E068B8B102
:101210000120C8F80000FFF7CDFA064605E000BF40
:10122000FFF7C8FA801B0228C0D828688007F7D5C6
:101230002868216920F0F80040EAC10028600DE02C
:10124000C8F800A0FFF7B6FA064604E0FFF7B2FAC6
:10125000801B02281FD828688007F7D42078000751
:1012600022D5824E83486169703671B101210160D7
:10127000FFF7A0FA074604E0FFF79CFAC01B02281C
:1012800009D830688007F7D50EE0C0F800A0FFF756
:1012900091FA074605E082E0FFF78CFAC01B0228AE
:1012A0007DD830688007F7D42078400768D5DFF80C
:1012B000BCB100270BF13C0BDBF80000C0000BD4E5
:1012C000DBF8001041F08051CBF80010DBF8000093
:1012D000012700F080500090674E3068C00510D4A0
:1012E000306840F480703060FFF764FA009005E0E9
:1012F000FFF760FA0099401A022850D83068C005FC
:10130000F6D55A4EA0686C3601280FD005283068F3
:1013100010D020F001003060306820F00400306010
:10132000A068B8B1FFF746FA00900FE0306840F0CF
:101330000100F4E740F004003060F7E7FFF73AFA05
:101340000099411A41F28830814266D8306880079E
:10135000F4D50EE0FFF72EFA009007E0FFF72AFA27
:101360000099411A41F28830814256D8306880078E
:10137000F4D42FB1DBF8001021F08051CBF800102D
:10138000A069C8B33949091D0968C1F3810102295F
:101390004AD00228504607D0C8F8600000E03CE080
:1013A000FFF708FA04463BE04746C8F86000FFF73D
:1013B00001FA064605E000BFFFF7FCF9801B022892
:1013C0002BD828688001F7D4D4E907010843A16A23
:1013D0002A4A490802EB0141626A41EA8211084344
:1013E00094F82C1040EA0161C9F800100120386619
:1013F000FFF7E0F9044606E036E000BFFFF7DAF950
:10140000001B022809D828688001F7D52CE000BF0E
:10141000FFF7D0F9001B022802D90320BDE8F88F9E
:1014200028688001F4D41FE00128F7D0D9F8000023
:10143000E26900F48001914214D1226A00F03F0178
:1014400091420FD147F6C071626A0140914209D1C1
:10145000A26A00F44031914204D1E16A00F0706068
:10146000884201D00120D9E70020D7E704380240A4
:1014700000004742800E4742007000400000FFFF1E
:1014800010B5401EB0F1807F01D3012010BD4FF098
:10149000E02460610F21601700F0E1FD0020A061F1
:1014A00007202061002010BD7047704770B590F88C
:1014B0003C20012A2CD0012480F83C40022280F8F4
:1014C0003D2003685A689D6822F070060A6832431E
:1014D0005A60104B02689A420ED0B2F1804F0BD086
:1014E0000D4B9A4208D00D4B9A4205D00C4B9A42B4
:1014F00002D00C4B9A4204D1496825F0800319436D
:10150000916080F83D40002180F83C10084670BD95
:10151000022070BD000001400004004000080040AF
:10152000000C00400040014010B5040003D094F8C6
:101530003D0010B107E0012010BD002084F83C0000
:10154000204600F00DF8022084F83D00211D20689F
:1015500000F0F0FC012084F83D00002010BD0000E8
:1015600008B500680B49884212D10B48016841F068
:10157000010101600068002200F0010000901146A6
:101580001920FFF7C3FCBDE808401920FFF7B0BCE5
:1015900008BD000000000140443802400168CA68EC
:1015A00042F00102CA600068816801F00701062963
:1015B00003D0016841F0010101600020704770B55F
:1015C000044690F83C00012817D0012584F83C50CF
:1015D000022084F83D002068826822F0770222F41D
:1015E0007F4282600868502830D00DDC20284DD022
:1015F00005DC98B310283BD148E0022070BD3028AC
:1016000044D0402834D139E0602828D0702806D052
:10161000B0F5805F2CD0B0F5005F29D10AE0CB682F
:10162000D1E90121206800F0D1FC2068816841F0F7
:10163000770109E0CB68D1E90121206800F0C6FC00
:101640002068816841F48041816011E0CA6849687E
:10165000206800F0CDFC5021206807E016E0CA6841
:101660004968206800F0D5FC6021206800F0B8FCD3
:1016700084F83D50002084F83C0070BDCA68496879
:10168000206800F0B5FC40212068EFE722680146A1
:101690001046EBE7704770B50446006801694FF0EB
:1016A0000005C943890715D4C168C943890711D406
:1016B000E91E0161012020772068806980072046AB
:1016C00002D0FFF7E7FF04E000F098F8204600F0B2
:1016D00096F8257720680169C943490717D4C1687E
:1016E000C943490713D46FF0040101610220207738
:1016F0002068806910F4407F204602D0FFF7CAFFBF
:1017000004E000F07BF8204600F079F825772068A7
:101710000169C943090716D4C168C943090712D42E
:101720006FF008010161042020772068C0698007FC
:10173000204602D0FFF7AEFF04E000F05FF820463D
:1017400000F05DF8257720680169C943C90617D400
:10175000C168C943C90613D46FF0100101610820A4
:1017600020772068C06910F4407F204602D0FFF740
:1017700091FF04E000F042F8204600F040F82577A1
:1017800020680169C943C90708D1C168C943C907AD
:1017900004D1891E0161204600F032F820680169F9
:1017A000C943090609D4C168C943090605D46FF0C5
:1017B000800101612046FFF777FE20680169C94377
:1017C000490609D4C168C943490605D46FF04001F0
:1017D0000161204600F04AF820680169C943890682
:1017E0000BD4C168C943890607D46FF02001016199
:1017F0002046BDE87040FFF758BE70BD7047704787
:10180000134910B50868421C0A60FEF705FE9FEDFB
:10181000111B53EC112BFEF71EFD9FED101B53EC1B
:10182000112BFEF78AFDFEF704FE00EE100A00F011
:1018300027FC9FED0C1ADFED0C0ABDE8104040EECE
:10184000010ABCEEE00A10EE100A80B200F038BEC9
:10185000000000205F984C158CA28340000000001F
:101860000088C34000E0FF44000000457047FEE7E9
:1018700001684A69D24352050FD46FF480624A610D
:10188000002140F8301F202242738173026942F028
:1018900004020261017301207047002070470000BC
:1018A0002DE9F84F0446C06A1E4693460D4621684E
:1018B0000A6842F480620A60082807D0012805D02F
:1018C00010F5803F02D0206B112804D120680168F8
:1018D00041F4807101604FF001195B4600224946D6
:1018E0002046009600F0C6F84FF4007840B120681A
:1018F0000068C00501D5C4F840800320BDE8F88F1A
:101900002069DFF884A0B0F5804F0FD00620216851
:1019100000EAD51747F0F000086133465A460AF14D
:101920000601204600F0DAF858BB03E0E8B240F0C8
:1019300001001CE02168E8B2086133465A4651466E
:10194000204600F0CBF8E0B9206841698169009138
:10195000016841F4807101605B46002249462046DF
:10196000009600F087F80028C1D147F0F100216807
:10197000086133465A465146204600F0AFF8002829
:10198000BCD00120BAE7000002000100F8B504460F
:10199000C06A1E460D461746082807D0012805D004
:1019A00010F5803F02D0206B122804D12068016816
:1019B00041F480710160134600224FF0011120466E
:1019C000009600F057F840B120680068C00502D5C5
:1019D0004FF4007020640320F8BD2069B0F5804FFB
:1019E0000ED00620216800EAD51040F0F000086112
:1019F00033463A460B49204600F070F878B902E0C9
:101A000005F0FE0000E0E8B22168086105493346B0
:101A10003A46891F204600F061F80028DCD00120FA
:101A2000F8BD00000800010070B516460D460446DA
:101A30000DE02046FFF71CFF08B1012070BD681CB7
:101A400005D0FEF7B7FE801BA84207D835B1206845
:101A50004069C0434007ECD4002070BD002044F82A
:101A6000300F20216173A073216941F020012161B1
:101A70002073E2E72DE9F0471E4690460D460446E6
:101A8000C1F30747DDF8209008E0701C06D0FEF790
:101A900091FEA0EB0900B0420FD876B12068012F6B
:101AA00018D0806925EA00000004000C14D0002141
:101AB0004145EAD00020BDE8F087002044F8300F0F
:101AC00020216173A073216941F0200121612073FD
:101AD0000120F0E74069E5E70121E9E72DE9F0475A
:101AE0009A4691460E46044600254FF02008C1F361
:101AF000074725E020684069C043400514D42068AA
:101B0000016841F40071016021686FF480604861F0
:101B1000256384F83D8084F83E50206C40F004003A
:101B2000206484F83C501FE0B9F1FF3F08D0FEF775
:101B300041FEA0EB0A0149450CD8B9F1000F09D0CC
:101B40002068012F13D0806926EA00000004000CF1
:101B50000BD0CFE744F8305F84F80D80A57320697F
:101B600040F02000206125730120BDE8F087406926
:101B7000EAE72DE9F041002590460E46044620276D
:101B800017E04069C043C0060CD454F8301B6FF016
:101B90001000486144F810596777A577206A2062E1
:101BA000257717E0FEF706FEA0EB0800B04208D844
:101BB0003EB120684169C9434906E2D40020BDE82E
:101BC000F08144F8305F6773A573206940F020000E
:101BD000206125730120F2E770B516460D460446D4
:101BE0000DE02046FFF744FE08B1012070BD681CDF
:101BF00005D0FEF7DFFD801BA84207D835B120686D
:101C00004069C0430006ECD4002070BD002044F8B9
:101C1000300F20216173A073216941F020012161FF
:101C20002073E2E710B5012100F023F8A0F57F4111
:101C3000FF3902D0C0F3C01010BD002010BD1FB589
:101C4000034650008DF804006846009100F03EF80D
:101C50009DE8170083E817001FBD10B501790068E3
:101C600064230222FEF770FE08B1002010BD01209F
:101C700010BDF8B507460C460025084600F0EAFB03
:101C800006464FF47A700090397923463246386818
:101C9000FEF710FF28B1304600F08EFB4FF6FF70C4
:101CA000F8BD2046012C04D0032804D0052C08D10F
:101CB00001E0357805E0304410F8021D407840EA34
:101CC0000125304600F078FB2846F8BDB5EEC00A85
:101CD000F1EE10FA01D19FED070ADFED070A80ED62
:101CE000020A80EE801ABCEEC10A10EE101A818141
:101CF000704700003333534000008045AFF300804D
:101D00007CB5140005464FF47A7204D0402C13D0F1
:101D1000602C25D110E044EA031040EA11208DF830
:101D2000040000928DF805102979022301AA286881
:101D3000FEF7B0FFA8B928E04FF6FF7000EA0110E7
:101D400044EA43018DF80410010A8DF80510009251
:101D50008DF806002979032301AA2868FEF79AFF67
:101D600008B100207CBD602C0FD12846FFF75AFF38
:101D70000128F7D01920FEF741FC2846FFF752FF53
:101D80000128EFD01920FEF739FC01207CBD0000AE
:101D90000D4808B5016841F080010160016801F05B
:101DA00080010091016841F002010160016801F0C9
:101DB00002010091016841F001010160006800F03A
:101DC0000100009008BD0000303802400D4810B5F9
:101DD0000B4901600C49416000214FF48042816051
:101DE000C0E9031241618161C1610162FEF7E8FC53
:101DF000002803D0BDE81040FEF7FEBB10BD000078
:101E00000058004030000020801A060010B586B04F
:101E100000241648009401940294039404941249F7
:101E2000059401606321C0E90114C0E90314446111
:101E30008461FFF779FB08B1FEF7DEFB4FF48050B9
:101E4000009069460948FFF7BAFB08B1FEF7D4FBDA
:101E5000049404A905480594FFF728FB002801D045
:101E6000FEF7CAFB06B010BD000001408400002050
:101E7000FEE7FEE770477047FEF7E0BF30B593B06E
:101E800030216846FEF7DCF914210CA8FEF7D8F9DA
:101E90001C480025016841F080510160006800F095
:101EA000805011901848016841F440410160006879
:101EB000022400F4404011900120009000040190A1
:101EC0008001CDE9064008AA0420642182E81300BD
:101ED0000B906846FFF726F908B172B6FEE70CA929
:101EE0000F2081E831004FF48050CDE90F05032128
:101EF0000CA8FFF73DF8002801D072B6FEE713B03A
:101F000030BD0000403802400070004005480168C4
:101F100041F47001016003494FF0006080390860AE
:101F20007047000088ED00E00148FFF7B4BB0000F7
:101F300084000020F0B502681D4B1E4C9F031E4D0F
:101F40001E4E984207D0B84205D0A04203D0A84206
:101F500001D0B04204D122F0700C4A6842EA0C026F
:101F6000984210D0B8420ED0A0420CD0A8420AD05D
:101F7000B04208D0124CA04205D0124CA04202D070
:101F8000114CA04203D122F44074CA6822434C6928
:101F900022F08002224302608A68C2620A6882627A
:101FA000984201D10969016301214161F0BD00003E
:101FB000000001400004004000080040000C004008
:101FC00000400140004401400048014010B58468D1
:101FD00042EA032224F47F440A432243826010BD74
:101FE000826822F070020A4342F007018160704764
:101FF00010B5036A046A24F001040462846924F0C1
:10200000F00444EA021423F00A020A4384610262E3
:1020100010BD10B5036A23F0100303628369046ADC
:1020200023F4704343EA023224F0A00343EA01118F
:102030008261016210BDFEE74100080218BF042062
:102040000A0E18BF40F001004FF07F4232EA010152
:1020500008BF40F00200012808BF052070470907AB
:10206000090E002804DB00F1E02080F8001470471E
:1020700000F00F0000F1E02080F8141D7047000010
:1020800000B510EE101A2DED028B81B0524A684651
:10209000B2EB410F2ED94FF0E640B0EB410F94BFA9
:1020A00000204FF0FF3000900098B0EE408A0028EA
:1020B0006ADB10F0010F4BD068EE080A9FED471A5B
:1020C0009FED470A00EE810A9FED461A10F0020FBD
:1020D00000EE801AB7EE000A00EE810A02BF01B0DE
:1020E000BDEC028B00BD00BF01B0B1EE400ABDECFB
:1020F000028B00BD3C4B21F00042934241D911F0CC
:10210000004FDFED3A0A20EE201ADFED390A19BF41
:1021100031EE601A71EE200A31EE201A71EE600A7B
:10212000BDEEE01A11EE100A9FED321A00F0030026
:1021300000EEC10A9FED301A009000EEC10A9FED3B
:102140002F1A00EEC10A9FED2E1A00EEC10AABE76E
:1021500028EE080A9FED2B1ADFED2B0A10F0020F74
:1021600040EE410A9FED291A00EE201A61EE000AA6
:10217000B0EE480A08EE200AB6D101B0BDEC028BE1
:1021800000BD00F059F88FE718EE100A4000B0F1DA
:102190007F4F0DD218EE100AFFF74EFF042808BF3C
:1021A00000F042F8B0EE480A01B0BDEC028B00BD71
:1021B00009D1012000F0FAF801B0BDEC028B5DF806
:1021C00004EB00F029B801B0B0EE480ABDEC028B78
:1021D0005DF804EB00F01CB8B61F927EB93AB2BAB3
:1021E000CA9F2A3DDDFFFFBE490E494683F9223FC3
:1021F0000000004B0000C93F00A0FD390020A233C1
:102200001A61342C336D4C39DA82083CA0AA2ABEFC
:1022100030EE000A70470000DFED020A80EEA00AEF
:1022200070470000000000009FED020A20EE000A47
:1022300070470000000000102DE9F0014FF07F42D0
:10224000B2EB410F9FBF4FF0FF310160BDE8F001DD
:1022500070474FF0004242EA0123C1F3C752783A77
:10226000551112F01F0C434CCCF120067C44C1F3F5
:10227000C752A2F178024FEA621204EB820254F8CC
:10228000254008BFD2E9015612D0556804FA0CF473
:1022900025FA06F73C43976805FA0CF527FA06F885
:1022A000D26807FA0CFCF24045EA08054CEA02063F
:1022B000A4FB034CA5FB0352A6FB03631D449D42F4
:1022C00034BF012600261319334416B1934202D9B4
:1022D00003E0934201D2012200E00022624402F1B5
:1022E000200C9206DC0C42EA443200EE102A5B031A
:1022F000DFED210AF8EEC01A00EE103A4FEA9C1CFE
:1023000011F0004FB8EE400AC0F800C020EE201ACD
:1023100000EE105ADFED190AB8EE400A20EE200A4E
:1023200071EE810A70EE800A10EE902A02F50062CA
:102330006FF30B0200EE902A70EEE11A31EEC11A33
:10234000DFED101A30EE411A9FED0D0A20EE800AE3
:1023500001EE210A9FED0C1A00EE810A04BFBDE8D0
:10236000F0017047CCF180510160BDE8F001B1EEA1
:10237000400A704778020000000000360000802C00
:1023800022AAFD29DB0FC92F0000C92F02E008C8CF
:10239000121F08C1002AFAD170477047002001E0DF
:1023A00001C1121F002AFBD17047000001490860DB
:1023B000704700001C00002010B5002821D0114BF0
:1023C0000022001F196803E0814203D80A464968C9
:1023D0000029F9D152B11368841A9C4204D10068D3
:1023E00018441060104602E0506000E0186039B1F7
:1023F00002680B1A934203D10B681A4402604968C1
:10240000416010BD140000201FB5FEF71FFDFFF74F
:1024100035FDFFF7BDFCFFF7D9FCFFF7F7FC9FED9B
:10242000090A602208496846FFF709FC9DE81E007A
:10243000064880E81E00FFF710FC0548FFF7AEF8DD
:10244000FEE700003333534030000020200000201E
:1024500084000020F0B50B30154D20F0070100245A
:10246000144A0FE003688B420BD38B4205D95E1AE6
:1024700043184768C3E9006700E04368136002C07F
:1024800004E0021D10680028ECD12046002802D18B
:10249000286808B10020F0BD064A07481060074AC6
:1024A000121A22F00702C0E9002401202860D7E7B1
:1024B0001800002014000020CC000020C8020020DA
:1024C000002301461A460148FFF718BC20000020EF
:1024D00000000000000000000102030406070809D4
:1024E0000000000001020304000000006E83F9A256
:1024F0002915444ED15727FCC0DD34F5999562DB90
:102500004190433CAB6351FE2825000800000020A9
:10251000200000008C23000848250008200000202F
:10252000A80600009C230008000000000100000035
:1025300010000000000000000024F4000000000073
:08254000000000000000000093
:040000050800019955
:00000001FF
